:1000000055C000006FC000006DC000006BC0000054
:1000100069C0000067C0000065C0000063C0000048
:1000200061C000005FC000000C9449085BC0000084
:1000300059C0000057C0000055C0000053C0000068
:1000400051C000004FC000004DC000004BC0000078
:1000500049C0000047C0000045C0000043C0000088
:1000600041C0000002C100003DC000003BC00000D4
:1000700039C0000037C0000035C0000033C00000A8
:1000800031C000002FC000002DC000002BC00000B8
:1000900029C0000027C0000025C0000023C00000C8
:1000A00021C000001FC000001DC0000011241FBEA1
:1000B000CFEFDAE0DEBFCDBF11E0A0E0B1E0E2E3D8
:1000C000F5E102C005900D92A234B107D9F727E0FF
:1000D000A2E4B1E001C01D92A236B207E1F703D657
:1000E0000C94970A8DCFFC019091C80095FFFCCF2E
:1000F00026EF2093CE009FEF922728E087E0990F0C
:1001000008F498272A95D9F720818091C80085FFA7
:10011000FCCF2093CE00922788E027E0990F08F4C7
:1001200092278A95D9F78091C80085FFFCCF9093DC
:10013000CE00109285001092840008958091C8002E
:1001400085FFFCCF83EF8093CE002FEF282788E038
:1001500097E0220F08F429278A95D9F7E0E0F1E02B
:1001600040E451E091918091C80085FFFCCF9093CD
:10017000CE00822F892798E027E0880F08F4822795
:100180009A95D9F7282F4E175F0761F79091C8000D
:1001900095FFFCCF8093CE001092850010928400D2
:1001A00008959091C80095FFFCCF8093CE002FEF6B
:1001B000282788E097E0220F08F429278A95D9F7A5
:1001C000FB01AB014E5F5F4F91918091C80085FFAD
:1001D000FCCF9093CE00822F892798E027E0880FEC
:1001E00008F482279A95D9F7282F4E175F0761F7F1
:1001F0009091C80095FFFCCF8093CE0010928500AF
:100200001092840008959091C80095FFFCCF8093D0
:10021000CE009FEF982788E027E0990F08F49227F7
:100220008A95D9F73FEF340F4423A1F0FB012191C8
:100230008091C80085FFFCCF2093CE00892F8227B4
:1002400098E027E0880F08F482279A95D9F7982F2D
:10025000315068F78091C80085FFFCCF9093CE00A5
:10026000109285001092840008951F920F920FB68D
:100270000F9211248F93EF93FF93E091420181E05D
:100280008E0F809342018091CE00F0E0EB5AFD4F3B
:1002900080838091C80087FDF0CFFF91EF918F910F
:1002A0000F900FBE0F901F9018950F931F93CF9331
:1002B000DF931F92CDB7DEB790915903292F2F708E
:1002C00011F097FD5DC000E020E030E050E040918B
:1002D0005A03842F8F7041F09078891729F047FDD9
:1002E00003C0142F90E004C010E080E090E040E0F4
:1002F000821793070CF48A0110924801109247016B
:10030000002321F0802F8F70873060F1112321F0BE
:10031000812F8F70873050F080914801811117C074
:100320000F90DF91CF911F910F910895612F661F5C
:100330006627661F606C42E3F1D5882369F317FDD9
:1003400023C01093470180914801882349F381E03D
:100350008983CE010196C7DE0F90DF91CF911F9167
:100360000F910895602F661F6627661F606C42E339
:10037000D5D5882359F207FD0AC000934701C6CF9F
:10038000092F30E0592FA3CF10934801E0CF0093FD
:100390004801BCCFFC0180915D0390915E03009702
:1003A00009F47EC020915F0330916003E217F307E8
:1003B00009F477C09C012A5C3F4F809163039091C0
:1003C0006403009709F46CC0A0916503B0916603C3
:1003D000EA17FB0709F479C0280F391F80916903D8
:1003E00090916A03009709F45BC0A0916B03B091F0
:1003F0006C03EA17FB0709F473C0280F391F8091BB
:100400006F0390917003009709F44AC0A0917103A3
:10041000B0917203EA17FB0709F46DC0280F391F6A
:1004200080917503909176030097D1F1A0917703A5
:10043000B0917803EA17FB0709F468C0280F391F49
:1004400080917B0390917C03009751F1A0917D03F3
:10045000B0917E03EA17FB0709F463C0280F391F28
:1004600080918103909182030097D1F0A091830342
:10047000B0918403EA17FB0709F45EC0280F391F07
:100480008091870390918803009751F080918903B0
:1004900090918A038E179F0709F459C080E090E07D
:1004A000089520916103309162036217730709F088
:1004B00081CF26E330E0EDE5F3E0295A3C4FDA0145
:1004C0002D933C93808191810895A0916703B09111
:1004D00068036A177B0709F07FCFE3E6F3E0EDCF0F
:1004E000A0916D03B0916E036A177B0709F085CF69
:1004F000E9E6F3E0E2CFA0917303B09174036A17C9
:100500007B0709F08BCFEFE6F3E0D7CFA09179031B
:10051000B0917A036A177B0709F090CFE5E7F3E023
:10052000CCCFA0917F03B09180036A177B0709F0BD
:1005300095CFEBE7F3E0C1CFA0918503B09186039F
:100540006A177B0709F09ACFE1E8F3E0B6CF809114
:100550008B0390918C038617970709F09FCFE7E8EC
:10056000F3E0ABCF0F931F93CF93DF931F92CDB7E1
:10057000DEB71092460180915A07982F9076A9F421
:1005800087FD3EC080915B078B30A1F59091E8001C
:10059000977F9093E8008A3009F457C0D3D40F9026
:1005A000DF91CF911F910F910895809154028F5F39
:1005B0008093540280930B0288E0EAE5F7E0ACE018
:1005C000B2E001900D928A95E1F78091E800877F73
:1005D0008093E80080915A0787FD17C060916007FB
:1005E000709161076134710528F18091EB008062A0
:1005F0008093EB000F90DF91CF911F910F910895A1
:1006000080915B078A30B1F7C1CF10EB09E081E040
:1006100080934601402F6BE072E0812FF4DD402F84
:100620006BE072E0812FEFDD0F90DF91CF911F9192
:100630000F91089584E192E02FD48111D6CF1091CB
:10064000600709E0010F1055E2CF8091600790919B
:100650006107892B09F4A2CF198261E070E0CE0115
:1006600001968FD39BCF8F929F92BF92CF92DF92B2
:10067000EF92FF920F931F93CF93DF93CDB7DEB727
:1006800028970FB6F894DEBF0FBECDBFF0904201A1
:10069000E0904301FE1809F465C081E1B82ECC2436
:1006A000CA94EE2DF0E0EB5AFD4F0081033F09F4B0
:1006B0007DC080E9800F803408F06BC011E9100F15
:1006C00080915B03D090890181FF77C0DD2009F420
:1006D000B5C0812E912C4D2D50E0CA01880D991D79
:1006E000813491050CF0BDC0DA01A557BE4FC4019D
:1006F000019651E02F2D30E0821793070CF032C0A5
:10070000DD24D394DE0C8C2D802798E027E0880F21
:1007100008F482279A95D9F72D2D30E0E22FF0E0EA
:10072000EB5AFD4F90819D93892798E047E0880F11
:1007300008F484279A95D9F73F5F2F5F311770F33C
:10074000E22FF0E0EB5AFD4F9081891709F457C072
:1007500080914501811169C0D0924301FA94ED2C3A
:10076000F1109FCF80915907843009F4D5C02896A5
:100770000FB6F894DEBF0FBECDBFDF91CF911F91B2
:100780000F91FF90EF90DF90CF90BF909F908F9050
:10079000089580E5800F8134F0F419E5100F812F62
:1007A00090E00196ABE0B2E050E0A4CF87E090E0AB
:1007B000DE01119616E050E09DCF812E912CD110D4
:1007C0004EC080918A01811171C0C4010196ABECC9
:1007D000B1E050E08FCF013F09F452C0E394809123
:1007E0004501811104C0E0924301FA94B9CFBF8260
:1007F0000887BE01695F7F4F84EFD3DCF4CF033FEE
:1008000009F44FC0003B08F442C090910B02809164
:100810005402981709F4AEC082E0810FE80EE0920E
:100820004301FA94FA94F11A9BCF82E28F830887EE
:10083000BE01695F7F4F84EFB4DC8ECFA0918A0147
:10084000812E912CAA2309F4C0CFB0E0CD01880DF0
:10085000991D8134910554F5A553BE4F48CF4D2DB8
:1008600050E06BE871E08BEC91E058D6D0928A01B1
:1008700010928901C4010196ABE8B1E050E03ACF93
:100880008AE090E0DE01119619E050E033CF552365
:1008900099F0809189018823C9F0810F80938901A3
:1008A000BBCF89818237C1F0ED2C99CFC40101966D
:1008B000ABE8B1E050E01ECF80918A01882319F0A7
:1008C00010938901A9CF10938A01A6CF80918A0144
:1008D000810F80938A01A0CF8A81853629F78B8189
:1008E000873511F78C818134F9F68D818335E1F6F6
:1008F0008E818434C9F68091E00081608093E000AD
:10090000F89498E088E10FB6F894A8958093600079
:100910000FBE90936000FFCF80914801882309F4B7
:1009200026CF90918A01992309F421CF8F7080936B
:10093000E9008091E80080FF1ACFEBECF1E00AC0FB
:1009400081918093F10080918A01815080938A0186
:10095000882321F08091E80085FDF2CF8091E800A6
:100960008E778093E80010918901111128C01092B0
:100970008A01FDCE80914601882309F44DCF48E0DD
:1009800050E06AE577E08CE092E0BBD5892B09F076
:1009900043CF1092E90010924601013F41F080914F
:1009A0005A0787FD18C0CED2E090430135CF809121
:1009B000EB0080628093EB00E09043012DCF412F4C
:1009C00050E06BE871E08BEC91E0A8D510938A01C0
:1009D00010928901CCCE67EF610F70E080916007C3
:1009E000909161078617970710F4BC01772784E17F
:1009F00092E0C7D1D8CFEF92FF920F931F93CF937E
:100A0000DF9314BE0FB6F894A895809160008861BA
:100A100080936000109260000FBE90E080E80FB6F7
:100A2000F89480936100909361000FBE80918100E3
:100A300085608093810083E090E09093CD00809367
:100A4000CC0086E08093CA0082E08093C80088E1F1
:100A50008093C900539A5A9A71DB9AE002C0809140
:100A6000CE008091C80087FDFACFEFE9FFE0319713
:100A7000F1F700C000009150A1F788E98093C90008
:100A80007894D0914401C0914301EE24EA9402EF9E
:100A900011E0D11111C0809142018C1BE1F3EC2FC8
:100AA000F0E0EB5AFD4F9081933F91F0923F01F1BE
:100AB000CF5FC0934301EFCFCFD210928500109249
:100AC0008400DF91CF911F910F91FF90EF900895D7
:100AD000883008F321E02C0FE22FF0E0EB5AFD4FB5
:100AE0005081523709F45DC020934301C22FD3CF08
:100AF00040915503509156034115510509F447C0E3
:100B00002091570330915803B901641B750B6D3F59
:100B1000710508F041C0F22EF41A2F2D30E02F5F3E
:100B20003F4F90E0281739070CF0B5CF71E07C0FEC
:100B30008E2D802798E027E0880F08F482279A9569
:100B4000D9F7FF2009F4CDC0DA01A95ABC4F3F2DD7
:100B5000370F272FE22FF0E0EB5AFD4F90819D9346
:100B6000892798E067E0880F08F486279A95D9F7D7
:100B70002F5F2313EFCFE32FF0E0EB5AFD4F90816F
:100B8000981709F485C070934301C72F84CF27E3DA
:100B900030E066E3F62EC5CF2EEF30E09DEFF92E64
:100BA000C0CFE2E0EC0FF0E0EB5AFD4F408145365C
:100BB00009F09ACFE3E0EC0FF0E0EB5AFD4F6081D3
:100BC000673509F091CFE4E0EC0FF0E0EB5AFD4F10
:100BD000A081A13409F088CFE5E0EC0FF0E0EB5AFA
:100BE000FD4F7081733509F07FCFE6E0EC0FF0E048
:100BF000EB5AFD4F3081343409F076CF8E2D8927A2
:100C000098E0E7E0880F08F48E279A95D9F78527B2
:100C100098E057E0880F08F485279A95D9F784273C
:100C200098E047E0880F08F484279A95D9F786273B
:100C300098E067E0880F08F486279A95D9F78A2705
:100C400098E0A7E0880F08F48A279A95D9F78727B4
:100C500098E077E0880F08F487279A95D9F78327DB
:100C600098E037E0880F08F483279A95D9F7E7E0F2
:100C7000EC0FF0E0EB5AFD4F9081981335CF5EDA20
:100C80001092560310925503C85FC093430103CFDF
:100C90004F0D511D509356034093550380915703B8
:100CA000909158039C01265331092B3C334068F046
:100CB000109256031092550365E573E082EF71DAE6
:100CC000CE5FCF0DC0934301E4CE48175907A1F77B
:100CD00080915B0380FD1093450110934401D1E0A6
:100CE000EBCF372F48CF87DECDEFBDDC80915907A2
:100CF0008430B9F080918400909185008C349C44BC
:100D000050F08091C80085FFFCCFC093CE001092B8
:100D1000850010928400D2D3A6DC809159078430DC
:100D200049F780914701882329F38F708093E90068
:100D30008091E80082FFDECFE9E4F1E080E090E01E
:100D400007C02091F100219301968034910589F02C
:100D50002091E80025FDF5CF2091E8002B77209326
:100D6000E800009739F2482F815969E471E04BDAC5
:100D7000C1CF8091E8008B778093E8008FEA40E450
:100D8000F4CF20916007309161072617370758F09C
:100D90006115710509F046C02091E8002E77209377
:100DA000E80020E030E0FC0160E02115310529F584
:100DB00061110FC031C08530B9F18091E80083FD29
:100DC00035C08091E80082FD27C08091E80080FD59
:100DD00051C0809159078111EECF82E0089585308E
:100DE00019F18091E80083FD21C08091E80082FD27
:100DF00013C08091E80080FD1BC0809159078111CC
:100E0000EECFEBCF80915907882339F3853061F01D
:100E10008091E80083FD0AC08091E80082FFF2CF54
:100E200080E008959B01BFCF83E0089581E008959D
:100E30008091F3004091F20050E0582B0AC081915C
:100E40008093F100215031094F5F5F4F211531052B
:100E5000F9F08091400190E04817590780F361E074
:100E60008417950709F060E08091E8008E77809301
:100E7000E8009BCF8091F3004091F20050E0582BA6
:100E80008091400190E061E08417950761F7ECCF15
:100E90008091400190E0E3CF6115710591F480915C
:100EA000E8008B778093E80006C08091590788237B
:100EB000C1F0853079F18091E80080FFF6CF80E0C5
:100EC0000895FC010AC0853029F18091E80083FD76
:100ED00023C08091E80082FD06C0809159078111EE
:100EE000F2CF82E008952091F3008091F20090E02B
:100EF000922B892B31F08091F1008193615071091F
:100F000091F78091E8008B778093E8006115710577
:100F100021F7D1CF83E0089581E008958F70809309
:100F2000E900EBEEF0E0808181608083EDEEF0E09F
:100F300010826093EC0040838091EE00881F882728
:100F4000881F089580915A0787FF05C012C08091BD
:100F50005907882349F08091E80080FFF8CF8091FD
:100F6000E8008E778093E8000895809159078823E0
:100F7000D9F38091E80082FFF8CF8091E8008B7769
:100F80008093E8000895CF93DF9300D0CDB7DEB70C
:100F900073D07AD08091D8008F778093D8008091D9
:100FA000D80080688093D8008091D8008F7D80938E
:100FB000D80019BC1092590710925707AE014F5F25
:100FC0005F4F60E070E080E091E0E4D9892B29F088
:100FD000E981FA818781809340018091E0008B7FD5
:100FE0008093E0008091D80081608093D8002091A8
:100FF000400130E02930310568F188E090E040E0C0
:101000004F5F880F991F82179307D0F34295407F57
:10101000426060E080E082DF8091E1008E7F80931B
:10102000E1008091E20081608093E2008091E20023
:1010300088608093E2008091E0008E7F8093E000E2
:101040008091D80080618093D8000F900F90DF913D
:10105000CF91089542E0DDCFE8EDF0E080818F7E12
:101060008083E7EDF0E080818160808384E082BF4F
:1010700081E08093580787CFE8EDF0E080818E7F94
:1010800080831092E20008951092DA001092E1003D
:1010900008951F920F920FB60F9211242F933F9332
:1010A0004F935F936F937F938F939F93AF93BF9370
:1010B000EF93FF938091DA0080FF04C08091D80005
:1010C00080FD80C08091E10080FF04C08091E2003B
:1010D00080FD8DC08091E10084FF2BC08091E200F3
:1010E00084FF27C080E189BD82E189BD09B400FE8B
:1010F000FDCF8091D8008F7D8093D8008091E10052
:101100008F7E8093E1008091E2008F7E8093E200E9
:101110008091E20081608093E20080915707811105
:101120007BC08091E30087FF80C083E080935907F4
:10113000C4D18091E10083FF34C08091E20083FF3D
:1011400030C08091E100877F8093E10082E080934E
:101150005907109257078091E1008E7F8093E1003C
:101160008091E2008E7F8093E2008091E2008061B6
:101170008093E2002091400130E02930310508F4ED
:1011800056C088E090E040E04F5F880F991F8217BB
:101190009307D0F34295407F426060E080E0BEDE7E
:1011A0008CD1FF91EF91BF91AF919F918F917F91E2
:1011B0006F915F914F913F912F910F900FBE0F90C4
:1011C0001F9018958091DA008E7F8093DA008091CD
:1011D000D90080FF25C080E189BD82E189BD09B4C5
:1011E00000FEFDCF81E08093590767D16BCF8091DE
:1011F000E2008E7F8093E2008091E2008061809324
:10120000E2008091D80080628093D80019BC85E00C
:101210008093590752D15ECF84E08093590788CFDD
:1012200019BC1092590749D14DCF81E07FCF42E0E0
:10123000B4CF1F93CF93DF9300D0CDB7DEB78091AB
:10124000F10080935A078091F10080935B078091B1
:10125000F10080935C078091F10080935D0780919D
:10126000F10080935E078091F10080935F07809189
:10127000F100809360078091F1008093610772D93B
:101280008091E80083FF10C090915A0780915B071E
:10129000853081F108F470C08830D1F0893009F4CC
:1012A000A9C0863009F446C08091E80083FF0AC0D7
:1012B0008091E800877F8093E8008091EB00806256
:1012C0008093EB000F900F90DF91CF911F910895C5
:1012D000903851F78091E800877F8093E8008091F3
:1012E00057078093F1008091E8008E778093E800A3
:1012F00029DEDACF9111D8CF10915C071F7780914A
:10130000E3008078812B8093E3008091E800877F61
:101310008093E80017DE8091E80080FFFCCF809189
:10132000E30080688093E3001111BDC082E08093E8
:101330005907BACF9058923008F0B6CF60915E0747
:1013400070915F07AE014F5F5F4F80915C07909196
:101350005D0720D8BC01892B09F4A6CF9091E80045
:10136000977F9093E80089819A810BDD8091E80056
:101370008B778093E80098CF813029F008F46DC016
:10138000833009F091CF923009F08ECF90915C07B5
:10139000911127C090915E079F702FEF290F263083
:1013A00008F082CF9093E9002091EB0020FF19C054
:1013B000833009F47CC08091EB0080618093EB0066
:1013C00021E030E0A90102C0440F551F9A95E2F7D1
:1013D0004093EA001092EA008091EB0088608093CD
:1013E000EB001092E9008091E800877F8093E8008D
:1013F000A9DD5ACF911158CFAE014F5F5F4F60E02A
:1014000070E080E091E00E94CA01892B09F44CCF82
:1014100020915C0730915D073327E981FA8181894A
:1014200090E0821793070CF43FCF8091E800877F0C
:101430008093E80080915C078093570783DD80915B
:101440005707811132C08091E30087FD2EC081E0F3
:10145000809359070E94550127CF903811F1923897
:1014600009F022CF80915E078F70873008F01CCF83
:101470008093E9008091EB0085FB882780F910922A
:10148000E9009091E800977F9093E8008093F10045
:101490001092F1008091E8008E778093E80052DD91
:1014A00003CF80E0EECF83E042CF84E0D1CF8091C4
:1014B000EB0080628093EB0094CF0895CF938091EE
:1014C0005907882391F0C091E900CF708091EC001A
:1014D00080FD0DC080E0C82B1092E9008091E800EB
:1014E00083FD0DC0CF70C093E900CF91089580E8CF
:1014F000C82B1092E9008091E80083FFF3CF99DEBA
:10150000F1CFFB01DC0104C08D910190801921F421
:1015100041505040C8F7881B990B0895FB01DC012E
:1015200002C001900D9241505040D8F70895F894B0
:02153000FFCFEB
:10153200726557415344C1010300000000000000DE
:101542000000000000000000000000000000000099
:101552000000000000000000000000000000000089
:101562000000000000000000000000000000000079
:0215720008006F
:00000001FF
